:020000040800F2
:10000000F8060020ED010008AB2E0008D7240008F8
:10001000A92E0008C70800086D4200080000000073
:10002000000000000000000000000000C3310008D4
:10003000C908000800000000AD2E00081D320008AD
:10004000070200080702000807020008070200086C
:10005000070200080702000807020008070200085C
:10006000070200080702000807020008070200084C
:10007000070200080702000807020008070200083C
:10008000070200080000000007020008070200083D
:10009000070200080702000807020008070200081C
:1000A000070200080702000807020008070200080C
:1000B00007020008070200080702000807020008FC
:1000C00007020008070200080702000807020008EC
:1000D0000702000861420008070200080702000842
:1000E00007020008070200080702000807020008CC
:1000F00007020008070200080702000800000000CD
:1001000000000000070200080000000007020008CD
:1001100007020008000000000702000807020008AC
:10012000070200080702000807020008070200088B
:10013000070200080000000000000000070200089D
:10014000070200080702000800000000000000008D
:10015000000000000000000000000000000000009F
:10016000000000000000000000000000070200087E
:10017000070200080000000000000000000000006E
:10018000000000000702000800000000000000005E
:10019000000000000000000000000000000000005F
:1001A000000000000000000007020008070200082D
:1001B000070200080702000807020008000000000C
:1001C000000000000702000800000000000000001E
:1001D0000702000807020008DFF80CD000F016FB49
:1001E0000048004751440008F806002006488047B0
:1001F00006480047FEE7FEE7FEE7FEE7FEE7FEE70C
:10020000FEE7FEE7FEE7FEE77D320008D9010008C1
:100210002DE9F05F0546002092469B46884606463B
:10022000814640241BE0284641464746224600F0CE
:1002300036FA53465A46C01A914110D31146184611
:10024000224600F01DFA2D1A67EB01084F462246A0
:100250000120002100F014FA17EB00094E41201E86
:10026000A4F10104DFDC484631462A464346BDE896
:10027000F09F40EA01039B0703D009E008C9121F61
:1002800008C0042AFAD203E011F8013B00F8013B50
:10029000521EF9D27047D2B201E000F8012B491E7C
:1002A000FBD270470022F6E710B513460A46044613
:1002B0001946FFF7F0FF204610BD2DE9FE4F80469E
:1002C00081EA0300C00F0C46009021F0004123F0AA
:1002D0000045B8EB0200A94105D2404621469046B0
:1002E0001C460B46024623F00040104347D0270D22
:1002F000C7F30A00C3F30A510290401A0190402844
:100300006BDAC3F3130040F4801B0098924620B1CF
:100310000023D2EB030A63EB0B0B01985946C0F1A3
:100320004002504600F0ACF906460D46504659468C
:10033000019A00F0C4F910EB08006141002487EA3B
:10034000115284EAE7731A4340D0009A62B3019ACB
:10035000012A4FEA075215DC001B61EB02014FF046
:10036000004202EA0752CDE90042001C41F580112B
:1003700032462B4600F0FBF903B0BDE8F08F404653
:100380002146F9E7001B61EB0201001C41F58013D7
:1003900000185B412018A2F5001747EB030140EA63
:1003A000D570B6196D4111E06D084FEA360645EA81
:1003B000C0754FEA0752001B61EB0201001C41F5BA
:1003C000801149084FEA30000019514132462B464E
:1003D00003B0BDE8F04F00F0BBB900980122400027
:1003E0000023D0EB020263EBE073009821464FEA52
:1003F000E074B8EB000061EB0401E9E783F000432F
:100400005BE781F0004158E72DE9FE4F81EA0304E4
:1004100004F0004421F0004100944FF0000B23F061
:10042000004350EA01045ED052EA03045BD0C3F3F8
:100430000A54C1F30A552C44A4F2F3340194A0FBEE
:100440000254C1F3130141F48011C3F3130343F4C5
:10045000801301FB024400FB034E840A970A44EA1E
:10046000815447EA8357A4FB076802958D0A05FB70
:1004700007854FEA932C04FB0C542705029D4FEA95
:10048000065847EA1637B5EB08056EEB070C870EE2
:10049000920E47EA811742EA8312A7FB0201B6EBEC
:1004A0000B0164EB00042B0D43EA0C335E1844EBA4
:1004B0001C50DA465146E7FB0201C5F313044FEA2C
:1004C0000B3343EA14534FEA0432019C43EA060318
:1004D000A4F10C040294009CCDE900B400F047F9AB
:1004E00003B0BDE8F08F00200146F9E72DE9F04D9B
:1004F00081EA030404F0004B21F0004514464FF05C
:10050000000A23F0004150EA050220D054EA01021B
:100510001DD0C5F30A570246C5F31303C1F31300F8
:10052000C1F30A5640F4801543F48013A7EB060884
:10053000101BD64608F2FD3873EB050002D308F114
:10054000010801E092185B41B8F1000F03DA0020C6
:100550000146BDE8F08D00204FF480110646844628
:100560000EE0171B73EB050705D3121B63EB0503A6
:1005700006434CEA010C49084FEA300092185B41EF
:1005800050EA0107EDD152EA030012D082EA0400DA
:1005900083EA0501084305D0101BAB4106D20122B6
:1005A000002306E000224FF0004302E06FF001025A
:1005B00053101AEB06004CEB085110EB0A0041EB0C
:1005C0000B01BDE8F04D00F0C3B80EB540F2334169
:1005D00002910021CDE900110A460B4600F0C7F850
:1005E00003B000BD70B5C1F30A5201F0004500240C
:1005F000C1F3130140F2FF3341F480119A4201DA52
:10060000002070BD40F233439A42A2F2334203DC31
:10061000524200F044F800E090402C43F1D04042B8
:1006200070BD00F0004230F000400AD0C10D01F56D
:100630006071C0F3160042EA0151C208400711433D
:10064000704700200146704701F0004330B421F0AC
:10065000004150EA010206D00A0DA2F56072C1F312
:100660001301002A02DC30BC00207047440F44EA2A
:10067000C104C100E01830BC00EBC25000F031B83A
:10068000202A04DB203A00FA02F100207047914052
:10069000C2F1200320FA03F3194390407047202A47
:1006A00004DB203A21FA02F00021704721FA02F31C
:1006B000D040C2F120029140084319467047202AD9
:1006C00006DBCB17203A41FA02F043EAE07306E07A
:1006D00041FA02F3D040C2F120029140084319468A
:1006E00070470029A8BF7047401C490008BF20F090
:1006F0000100704710B4B0FA80FC00FA0CF050EA28
:10070000010404BF10BC704749B1CCF1200421FAA8
:1007100004F411FA0CF118BF012121430843A3EBA3
:100720000C01CB1D4FEA00614FEA102042BF0020B0
:1007300010BC704700EBC35010440029A4BF10BC8C
:100740007047401C490008BF20F0010010BC7047F2
:1007500010B5141E73F1000408DA401C41F10001C9
:1007600092185B411A4301D120F0010010BD2DE920
:10077000F04D92469B4611B1B1FA81F202E0B0FA17
:1007800080F220329046FFF77BFF04460F4640EA96
:100790000A0041EA0B0153465A46084313D011465A
:1007A00053EA010019D0C8F140025046FFF777FF25
:1007B00005460E46504659464246FFF761FF08433C
:1007C00005D0012004E020463946BDE8F08D002028
:1007D000054346EAE0762C4337430A986305E40A6A
:1007E000A0EB08000022FD0A44EA47540A3002D573
:1007F00000200146E9E7010510196941DDE90845D6
:1008000000196941BDE8F04DA2E70000064C074D14
:1008100006E0E06840F0010394E8070098471034D0
:10082000AC42F6D3FFF7DCFC4459000864590008D9
:1008300070B504460068816811F0010F28D1816805
:10084000144A114215D18168D5432940491C816061
:1008500000F012FD064616E0816811F0010F03D189
:1008600081682940491C816000F006FD801B022838
:1008700009D9E06D40F01000E065206E40F0010005
:100880002066012070BD20680168C943C907E3D113
:10089000002070BD3F00008010B500F0FBFC02F0AE
:1008A000BFFC01F0BFFF02F099FA02F057F902F025
:1008B000B1F902F00BFA03F049FE02F0DFF8BDE8EF
:1008C000104003F0C9BDFEE77047002240F6B83380
:1008D00006E00021491C89B29942FBD3521C92B216
:1008E0008242F6D3704700002DE9F84F00270446F6
:1008F000009790F85800DFF8DC930D46B8460128C1
:1009000011D0012684F85860206802F00BF960B11C
:10091000E06D40F02000E0655FF0010784F858804A
:100920003846BDE8F88F0220FBE7D5E900210C230B
:10093000206803EA91131844036B01F01F014FF084
:100940001F0C0CFA01FCC2F3846223EA0C038A40F8
:1009500013430363206802F0E5F88246206802F042
:10096000DDF85AEA00003CD1AA6829682068B2F193
:10097000004F37D002F0DAF82068416921F00041D9
:10098000416120686969C268C2F3C10252009140A6
:100990002A69042A31D000EB82002B68026EDFF84E
:1009A00038C303F0F84302EA0C020B431A4342F047
:1009B0000041016622682869A96902EB8000026E85
:1009C00022F080720A430266297F20682A69012981
:1009D00010D0002100EB8200026E22F000720A4368
:1009E00002667DE0002202F0A1F82068416941F032
:1009F0000041C5E74FF00071ECE7002102F088F8F4
:100A0000400320684FF0000172D002F081F890FAA4
:100A1000A0F0B0FA80F1286842036ED090FAA0F0FE
:100A2000B0FA80F0814204D100221146206802F021
:100A30008CF80121206802F06BF8400320684FF029
:100A400001015DD002F064F890FAA0F0B0FA80F1F4
:100A50002868420359D090FAA0F0B0FA80F08142A1
:100A600004D100220121206802F06FF802212068E1
:100A700002F04EF8400320684FF0020148D002F027
:100A800047F890FAA0F0B0FA80F12868420344D009
:100A900090FAA0F0B0FA80F0814204D10022022145
:100AA000206802F052F80321206802F031F8400378
:100AB00020684FF0030133D002F02AF890FAA0F03A
:100AC000B0FA80F1286842032FD090FAA0F0B0FA73
:100AD00080F0814204D100220321206802F035F821
:100AE0002068816811F0010F22D0ACE000E004E042
:100AF00002F00EF8C0F384618DE7C0F3846091E7E3
:100B000002F006F8C0F38461A2E7C0F38460A6E7B0
:100B100001F0FEFFC0F38461B7E7C0F38460BBE778
:100B200001F0F6FFC0F38461CCE7C0F38460D0E746
:100B30002A7B296850F8B03FC1F3120C23EA0C035A
:100B400002F0180C654A22FA0CF20A4013430360C3
:100B5000E968494577D1286841031CD090FAA0F193
:100B6000B1FA81F1491C01F01F0109294FEA403116
:100B700032D8002912D000BF90FAA0F1B1FA81F169
:100B800001F1010101F01F0106FA01F609D100BFD0
:100B9000C0F3846109E0C0F38461E3E7C0F38461DA
:100BA000EEE790FAA0F1B1FA81F101F1010101F053
:100BB0001F0146EA816102D1C0F3846003E090FA2C
:100BC000A0F0B0FA80F000F1010000F01F0000EB8F
:100BD000400041EA005132E000290ED090FAA0F125
:100BE000B1FA81F101F1010101F01F0106FA01F6EC
:100BF00006D100BFC0F3846106E0C0F38461F1E771
:100C000090FAA0F1B1FA81F101F1010101F01F01A7
:100C100046EA816102D1C0F3846003E090FAA0F05B
:100C2000B0FA80F000F1010000F01F002C4A00EB48
:100C3000400002EB005041EA000141F00071AA6857
:100C4000206801F073FF27482A6802423FF466AE2D
:100C500025488168254B01F0E0719A4202D0244B6F
:100C60009A421BD10B0219D42268B2F1A04F7FF433
:100C700055AE826841F4000122F0E0720A438260BE
:100C80001C481D490068B0FBF1F000EB40008000FB
:100C900000E0401E00900028FBD13FE6174D184BA6
:100CA000AA4207D1CD0105D422689A42F5D041F07D
:100CB000807109E0134DAA42EFD14A02EDD42268B7
:100CC0009A42EAD041F48001826822F0E0720A433D
:100CD000826023E600007F4000F0FF03FFFF070073
:100CE000000020FE0000088000030050000021C327
:100CF0001000C09020000020400D0300000052C7EB
:100D000000010050000084CB0068006C70470000B8
:100D1000F8B54FF0000504002E46009502D0E06DB6
:100D200010B107E00120F8BD204600F0EDF826667E
:100D300084F8586020688168C1F3407119B18168F6
:100D4000694A1140816020688168C1F3007179B9F6
:100D50008168664A114041F080518160644865496C
:100D60000068B0FBF1F000E0401E00900028FBD1CD
:100D700020688168C1F3007141B9E16D41F0100153
:100D8000E165216E41F001012166012501F0CAFEF5
:100D9000E16DC90600D430B1E06D40F01000E065AF
:100DA00001252846F8BDE06D20F4807040F0020077
:100DB000E0652068806810F0010F11D14FF0A0406D
:100DC00080684D4900F00100896801F00101084385
:100DD00006D14A486168826822F47C120A43826024
:100DE000E168E06B627F0843A16841EA4231084351
:100DF00094F8241040EA0140012904D1218D404A91
:100E000002EB41410843E16A29B101F47871226B98
:100E1000014342EA01002168CA683A4B1A40024382
:100E2000CA6020680169626B21F040611143016171
:100E3000206801F077FE0646206801F06FFE30431F
:100E40002ED1207F94F83810800340EA41022068B8
:100E5000C16844F2020399431143C160206900282C
:100E6000206801690AD041F480310161206850F89E
:100E7000C01F22696FF30D01114307E021F4803197
:100E80000161206850F8C01F6FF30D01016094F8F4
:100E9000400001280CD02068016921F001010161A6
:100EA000606901282068016B21F00F0111D013E067
:100EB000D4E911010843D4E913121143084321680E
:100EC0000A6940F2FC739A43104340F00100086144
:100ED000E6E7226A521E11430163E06D20F0020032
:100EE00040F00100E0655CE7C0FFFF5FC0FFFF7FEF
:100EF00020000020400D03000001005000030050BE
:100F00000000FEFF0740F0FF704700002DE9F041B0
:100F100004463848806800F01F05206801F002FE92
:100F200018B102210846BDE8F08194F85800012864
:100F30000CD0012084F858002046FFF779FC01000E
:100F40004FF0000304D084F85830EBE70220EAE7C2
:100F5000E06D40F60162904340F48070E065264AFF
:100F600020684FF0A046904201D1374600E0074686
:100F7000874200D01DB9E76D27F48017E765E76D5C
:100F8000FF0404D5276E27F00607276600E02366D6
:100F90001C27076084F858302068904201D13346FE
:100FA00000E00346834215D0A5B1052D12D0092DCE
:100FB00010D0E36D43F48013E365904200D13046D6
:100FC000C0688001AED5E06D20F4005040F4805040
:100FD000E065A7E7C268920105D5E26D22F40052F0
:100FE00042F48052E2658268044B1A40121D82600E
:100FF00098E700000003005000010050C0FFFF7F91
:1010000070B590F82520002401212346022A07D03C
:101010000422C26380F8251080F82430012429E0DE
:101020000268156825F00E0515600268156825F040
:1010300001051560826C156825F48075156090F8BF
:101040004420056C02F01F0201FA02F26A60D0E946
:1010500013255560426D32B1156825F48075156011
:10106000D0E91625556080F8251080F82430816B72
:1010700001B18847204670BD70B5044600F0FCF809
:101080000546601C02D004484068044400F0F4F8AF
:10109000401BA042FAD370BD140000202DE9FC4F84
:1010A000DFF8A0A1002301250AF1040B03244FF06F
:1010B0000F0C0BF1040EBDE005FA03F632406FD0C1
:1010C0004F68012F05D0022F03D0112F01D0122F0E
:1010D00017D1D0F808905F0004FA07F829EA080948
:1010E0000097D1F80C8008FA07F848EA0908C0F818
:1010F00008804768B7430E79C6F300169E403E430A
:101100004660C6684FEA430804FA08F7BE430197F1
:101110008F6807FA08F73743C7604E68022E01D080
:10112000122E13D1DE0800EB86060096366A5F07A2
:10113000FF0E0CFA07F926EA0906D1F8109009FA11
:1011400007F949EA0609009EC6F820900668019F43
:10115000BE430F7907F0030707FA08F73743076024
:101160004E68F60065D5384E376E47F00107376692
:10117000366E23F0030706F001060096334E3E4418
:10118000B146B6689F074FEA17780CFA08F7BE43D6
:10119000B0F1904F05D02E4FB84204D1012717E08F
:1011A00047E0002714E02B4FB84201D102270FE09F
:1011B000294FB84201D103270AE0284FB84201D194
:1011C000042705E0264FB84201D1052700E0062795
:1011D00007FA08F73743C9F80870DAF8006057468D
:1011E000D1F8048096435FEAC83800D516433E60C4
:1011F000DBF800605F46D1F8048096435FEA8838E8
:1012000000D516433E60DEF800607746D1F80480D2
:1012100096435FEAC82800D516433E60094F0C3755
:101220003E68D1F8048096435FEA882800D51643CB
:101230003E605B1C0A6832FA03F67FF43DAFBDE8FE
:10124000FC8F00000004014000100240000001403B
:101250000004004800080048000C00480010004846
:10126000001400480069084000D0012070470AB10E
:101270008161704781627047014880687047000053
:101280001400002002488168426811448160704760
:101290001400002010B50024032000F0BBF800204B
:1012A00000F008F808B1012401E000F025F820461C
:1012B00010BD000070B50E4E05460024706898B150
:1012C0004FF47A71B1FBF0F00A490968B1FBF0F014
:1012D00000F0A4FD40B9102D06D200222946501E70
:1012E00000F078F8356000E00124204670BD000071
:1012F00014000020200000200B4808B5016E41F0CA
:1013000001010166016E01F001010091816D41F062
:1013100080518165806D00F08050009003488168A5
:1013200041F48041816008BD00100240007000401F
:1013300070B515460E46040003D0D4F8800010B1F5
:1013400007E0012070BD002084F87C00204601F0F9
:1013500039F82420C4F880002068016821F00101D8
:101360000160204602F076FB0128EBD0A06A10B1A4
:10137000204602F0BFF92068416821F490414160A5
:101380002068816821F02A018160B5F5006F04D1E1
:101390002068416866F31F6141602068016821F49C
:1013A0000061294301602068016841F0010101608A
:1013B0002046BDE8704002F001BA002809DB00F0C9
:1013C0001F02012191404009800000F1E020C0F897
:1013D00000117047F0B40E4B1B680C46C3F3022398
:1013E000C3F10705042D00D90425191D072901D2D1
:1013F000002300E0DB1E012606FA05F1491E21400C
:1014000099409E40761E16403143F0BC02F02FBF3B
:101410000CED00E0064900F0070208684FF6FF03F4
:10142000184040EA0220034A104308607047000059
:101430000CED00E00000FA052B492C4B0A68322124
:101440004A432B4940B1B0F5007F086829D020F409
:10145000C06040F480602CE00868C0F3412002289E
:1014600004D051F8800F20F4807022E0D1F8800081
:1014700020F48070C1F88000086820F4C06040F457
:1014800000700860B2FBF3F0401C00E0401E4A69A7
:10149000520501D50028F9D1486940050AD5032035
:1014A0007047C0F34120022806D051F8800F40F465
:1014B0008070086000207047D1F8800040F4807090
:1014C000C1F88000086820F4C06040F40070086033
:1014D000B2FBF3F0401C00E0401E4A695205DBD528
:1014E0000028F9D1D8E700002000002040420F007A
:1014F000007000402DE9F8430446006800269D4D29
:1015000000035ED5A86D0027C00008D4A86D40F088
:101510008050A865A86D012700F080500090DFF88A
:101520005892D9F8001041F48071C9F80010FFF703
:10153000A3FE804606E000BFFFF79EFEA0EB08007A
:1015400002282BD8D9F80000C005F5D5D5F89000B1
:1015500010F4407014D0216C814211D0D5F8900065
:10156000D5F8901020F4407041F48031C5F8901007
:10157000D5F8901021F48031C5F89010C5F890008E
:10158000C00711D0FFF778FE804641F2883907E0A6
:10159000FFF772FEA0EB0801494501D903260BE0D5
:1015A000D5F890008007F3D5D5F89000216C20F491
:1015B00040700843C5F890001FB1A86D20F080501E
:1015C000A8652078C00707D0D5F88800616820F0AA
:1015D00003000843C5F888002078800707D5D5F8B0
:1015E0008800A16820F00C000843C5F88800207826
:1015F000400707D5D5F88800E16820F0300008439F
:10160000C5F888002078000707D5D5F8880021693B
:1016100020F0C0000843C5F888002078800607D570
:10162000D5F88800616920F440600843C5F8880057
:101630002078400607D5D5F88800A16920F44050ED
:101640000843C5F888002078000607D5D5F888003B
:10165000E16920F440400843C5F888002088C005AF
:1016600007D5D5F88800216A20F440300843C5F832
:1016700088002088800507D5D5F88800616A20F4A5
:1016800040200843C5F88800208840050FD5D5F8CC
:101690008800A16A20F440100843C5F88800A06AB9
:1016A000B0F5801F03D1E86840F48010E86020881E
:1016B00000050FD5D5F88800E16A20F44000084302
:1016C000C5F88800E06AB0F5800F03D1E86840F4FF
:1016D0008010E8602088C0040FD5D5F88800216B01
:1016E00020F040700843C5F88800206BB0F1807F7F
:1016F00003D1E86840F48010E86020884FF0006172
:1017000080040ED5D5F88800626B20F0406010434D
:10171000C5F88800606B884203D1E86840F4801007
:10172000E860208840040ED5D5F88800A26B20F030
:1017300040601043C5F88800A06B884203D1E86878
:1017400040F48010E860208800040FD5D5F88800A8
:10175000E16B20F040500843C5F88800E06BB0F121
:10176000805F03D1E86840F48030E8603046BDE82F
:10177000F883000000100240007000402DE9F0479F
:101780000E4605004FF0000725D0DFF8AC81D8F8F1
:10179000000000F00F00B0420CD2D8F8001021F089
:1017A0000F013143C8F80010D8F8000000F00F0016
:1017B000B04210D12968614CC80741F2883A5AD02A
:1017C0006868DFF87C91032808D0022820682DD0B3
:1017D000400500282CDB0120BDE8F087206880014F
:1017E000F9D5E06800F00302E068C0F30310401C84
:1017F000032A19D0534A00BFB2FBF0F0E268C2F3EB
:1018000006225043E268C2F34162521C5200B0FB10
:10181000F2F0484517D9A06810F0F00F0CD08807F7
:1018200011D5A86840B10EE0474AE5E78003D0E74C
:1018300000F0B6F8484506D9A06820F0F00040F066
:101840008000A0608027A068696820F0030008433A
:10185000A060FFF711FD814606E000BFFFF70CFD19
:10186000A0EB090151453AD8A068696800F00C0066
:10187000B0EB810FF2D12868810714D5400703D55A
:10188000A06840F4E060A0602878000705D5A06853
:1018900020F4605040F4E060A060A068A96820F0E7
:1018A000F000084304E0802F03D1A06820F0F0008E
:1018B000A060D8F80010404601F00F01B14216D9DF
:1018C000016821F00F0131430160FFF7D5FC0746A5
:1018D00007E000BFFFF7D0FCC11B514501D9032031
:1018E0007AE7D8F8000000F00F00B042F2D1287873
:1018F000400705D5A068E96820F4E0600843A060CF
:101900002878000706D5A068296920F4605040EACD
:10191000C100A06000F044F8A1680C4AC1F30311B3
:10192000515C01F01F01C84009490860094800687E
:10193000BDE8F047FFF7BEBC0020024000100240A7
:1019400000B4C4040024F40000366E012C590008D1
:10195000200000201400002005480649006889681E
:10196000054AC1F30221515C01F01F01C8407047D4
:1019700020000020001002403C590008054806499C
:1019800000688968054AC1F3C221515C01F01F015A
:10199000C840704720000020001002403C59000859
:1019A000184910B58868C0F381021748012A0BD086
:1019B0008A68164BC2F38102022A06D08A68C2F3F3
:1019C0008102032A03D0002010BD184610BDCA684A
:1019D00002F00304CA68C2F30312521C032C02D0A3
:1019E000B0FBF2F001E0B3FBF2F0CA68C968C2F3E1
:1019F00006225043C1F34161491C4900B0FBF1F09C
:101A000010BD0000001002400024F40000366E01FA
:101A10002DE9F84304007AD02078FA4DC00747D06A
:101A2000A868E96800F00C0001F003010C2802D05E
:101A3000082817D001E0032914D06068B0F5803F72
:101A400017D0B0F5A02F286817D020F48030286078
:101A5000286820F4802028606068E0B1FFF70CFC63
:101A6000064614E02868800322D560680028D2D09A
:101A70001EE0286840F48030EDE740F480202860C4
:101A8000F7E700BFFFF7F8FB801B642870D82868D1
:101A90008003F7D50CE0FFF7EFFB064605E000BF3B
:101AA000FFF7EAFB801B6428F0D828688003F7D48E
:101AB000207880074CD5A868E96800F00C0001F098
:101AC00003010C2802D004280DD001E002290AD01D
:101AD000E068002828682BD040F480702860FFF769
:101AE000CBFB064619E02868400502D5E0680028CF
:101AF00091D06868217C20F0FE4040EA0160686077
:101B0000C1480068FFF7D6FB002800D120E076E14D
:101B1000FFF7B2FB801B0228B8D828684005F7D52C
:101B20006868217C20F0FE4040EA016068600FE0B8
:101B300020F480702860FFF79FFB064605E000BF99
:101B4000FFF79AFB801B0228A0D828684005F7D42D
:101B50002078000729D560690028D5F8940013D0B3
:101B600040F00100C5F89400FFF786FB064606E04A
:101B700090E000BFFFF780FB801B022886D8D5F8D5
:101B800094008007F6D510E020F00100C5F894001D
:101B9000FFF772FB064604E0FFF76EFB801B02288E
:101BA00078D8D5F894008007F6D42078400761D51E
:101BB000A86D0026C00008D4A86D40F08050A8652C
:101BC000A86D012600F08050009090480168C9057A
:101BD00011D40168804641F480710160FFF74CFB2D
:101BE000074604E0FFF748FBC01B022852D8D8F88C
:101BF0000000C005F6D5A068012815D00528D5F845
:101C0000900016D020F00100C5F89000D5F89000A3
:101C100020F00400C5F89000A06841F28838B8B1FF
:101C2000FFF72AFB07460EE0D5F8900040F00100D0
:101C3000F0E740F00400C5F89000F5E7FFF71CFB63
:101C4000C11B414526D8D5F890008007F6D50CE099
:101C5000FFF712FB074604E0FFF70EFBC11B4145EF
:101C600018D8D5F890008007F6D41EB1A86D20F0E2
:101C70008050A8652078800629D5A0690028D5F86D
:101C8000980013D040F00100C5F89800FFF7F4FA6F
:101C9000064606E077E000BFFFF7EEFA801B022859
:101CA00077D8D5F898008007F6D510E020F001002D
:101CB000C5F89800FFF7E0FA064604E0FFF7DCFA03
:101CC000801B022865D8D5F898008007F6D4E06913
:101CD000F0B3A968C1F38101032961D00228286803
:101CE00020F0807028600BD0E86820F00300E860E6
:101CF000E86847490840E860FFF7BEFA04464BE051
:101D0000FFF7BAFA064604E0FFF7B6FA801B02288E
:101D10003FD828688001F7D4F4E908016FF00F027A
:101D200002EB01110843218A5204490802EB415198
:101D3000A26841EA02210843217D4FF07E42490812
:101D400002EB41610843217B40EAC160E96800E0A1
:101D500062E0304A11400843E860286840F0807033
:101D60002860E86840F08070E860FFF785FA044674
:101D700005E000BFFFF780FA001B022809D8286899
:101D80008001F7D548E004E0FFF776FA001B02284F
:101D900002D90320BDE8F88328688001F4D43BE031
:101DA0000128F7D0E868226A00F00301914226D1A9
:101DB000616A00F0F0020901103991421FD1A26A54
:101DC00000F4FE41B1EB022F19D194F82C2000F061
:101DD0007841B1EBC26F12D1218E00F4C0024908E4
:101DE0004905A1F50011914209D194F8341000F091
:101DF000C06049084906A1F1007181420CD0012060
:101E0000C8E70000001002401400002000700040ED
:101E1000FFFFEEFE0C809F010020BBE710B5401EC7
:101E2000B0F1807F01D3012010BD4FF0E02460614C
:101E30000F21601702F01BFA0020A061072020612B
:101E4000002010BD10B5040003D094F83D0010B17F
:101E500007E0012010BD002084F83C00204600F07F
:101E600022F8022084F83D00211D206801F014FAB8
:101E7000012084F8480084F83E0084F83F0084F88C
:101E8000400084F8410084F8420084F8430084F85C
:101E9000440084F8450084F8460084F8470084F83C
:101EA0003D00002010BD704770B5044690F83C001E
:101EB0000D4601280BD0012084F83C000C2A45D0A7
:101EC00007DC5AB1042A1BD0082A78D12CE0022062
:101ED00070BD102A4ED0142A71D15DE0206801F047
:101EE00041FA2068816941F00801816120688169B7
:101EF00021F004018161206881692A69114311E0A0
:101F0000206801F07DFA2068816941F400618161F7
:101F10002068816921F480618161206881692A6972
:101F200041EA022181614AE0206801F0B1FA2068AB
:101F3000C16941F00801C1612068C16921F0040153
:101F4000C1612068C1692A69114311E0206801F06C
:101F5000E7FA2068C16941F40061C1612068C16984
:101F600021F48061C1612068C1692A6941EA0221C6
:101F7000C16124E0206801F01BFB2068016D41F085
:101F8000080101652068016D21F0040101652068E8
:101F9000016D2A69114311E0206801F041FB2068BE
:101FA000016D41F4006101652068016D21F48061DB
:101FB00001652068016D2A6941EA0221016500205E
:101FC00084F83C0070BD000010B50446022269B1DF
:101FD000042912D0082917D00C291CD0102921D08F
:101FE00094F84300012824D0012010BD94F83E004D
:101FF0000128F9D184F83E201DE094F83F00012823
:10200000F2D184F83F2016E094F840000128EBD18B
:1020100084F840200FE094F841000128E4D184F8CE
:10202000412008E094F842000128DDD184F84220E4
:1020300001E084F843200122206801F085F911496C
:10204000206888420BD01049884208D00F49884246
:1020500005D00F49884202D00E49884203D1416C15
:1020600041F400414164206881680B4A114006290F
:1020700006D0B1F5803F03D0016841F00101016055
:10208000002010BD002C0140003401400040014000
:1020900000440140004801400700010030B50446FB
:1020A0000D460068002201F04FF9224B41F2111158
:1020B00020688A0098420BD01F4B984208D01F4BD3
:1020C000984205D01E4B984202D01E4B984209D12F
:1020D000036A0B4206D1036A134203D1436C23F413
:1020E000004343642068036A0B4206D1016A11422F
:1020F00003D1016821F00101016001205DB1042DCF
:102100000CD0082D0DD00C2D0ED0102D0FD084F832
:102110004300002030BD84F83E00FAE784F83F0019
:10212000F7E784F84000F4E784F84100F1E784F829
:102130004200EEE7002C0140003401400040014025
:10214000004401400048014090F87C10012918D05B
:10215000012180F87C102421C0F8801050F8601B09
:102160000A680B6823F001030B6022F00051002283
:10217000426050F8603C19602021016202771046ED
:10218000704702207047704770B5044690F87C0095
:1021900001281DD0012084F87C002420C4F8800090
:1021A00020680568026822F00102026020688268E7
:1021B00022F060620A438260204601F069FA2068DA
:1021C00005602020C4F88000002084F87C0070BDE9
:1021D000022070BD70B5044690F87C0001281DD027
:1021E000012084F87C002420C4F880002068056861
:1021F000026822F0010202602068826822F06042D8
:102200000A438260204601F043FA206805602020DE
:10221000C4F88000002084F87C0070BD022070BDEE
:1022200070477047704700002DE9F041036804468D
:10223000D8691A68996810F00F0F4FF0000569D03F
:102240005E4E02F490770E4037437DD0C70709D029
:10225000D70507D501271F62D4F8883043F0010362
:10226000C4F8883083070AD5CB0708D02768022333
:102270003B62D4F8883043F00403C4F88830430745
:102280000AD5CB0708D0276804233B62D4F88830EE
:1022900043F00203C4F8883003070CD502F0200392
:1022A000334308D0266808233362D4F8883043F0DB
:1022B0000803C4F88830D4F88830002B3CD080065E
:1022C00009D502F0200001F08051084303D0E16EEF
:1022D00009B120468847D4F88800216889684906F2
:1022E00001D400072AD5204601F0A2FA20688168AF
:1022F00049061ED5816821F040018160A06FC0B100
:102300002F498163A06FFEF77BFE002814D0A06FD9
:10231000816B0AE0860617D502F0200601F080578F
:102320003E4311D0E16E24E02046BDE8F04108476D
:102330000AE02046FFF776FFBDE8F0812046FFF770
:1023400071FFC4F88850F7E7C60209D54E0207D5D9
:102350004FF4801018622046BDE8F041FFF761BFDE
:10236000060609D502F0800601F400010E4303D0F1
:10237000216F0029D8D1DFE741060DD551060BD5D5
:102380001968204621F0400119602021C4F880100E
:10239000256700F09FF8CFE7010206D5510004D56C
:1023A0002046BDE8F041FFF73BBFC001C4D5002A7D
:1023B000C2DA2046BDE8F041FFF7E5BE010000109B
:1023C0001B3800087047000070B5D0F88430202B0F
:1023D0006DD1B9B1B2B190F87C30012B67D0012337
:1023E00080F87C308165A0F85C20A0F85E20002198
:1023F000C16683684FF48056FF24B34207D1036956
:1024000013B11CE0012070BD40F2FF131DE07F25D9
:102410009BB1B3F1805F15D0A0F86010C0F88810B0
:102420002223C0F8843003689C6844F001049C6057
:10243000436EB3F1005F0ED027E0036943B9A0F803
:102440006040EBE703691BB13F23A0F86030E5E78C
:10245000A0F86050E2E7B0F86830934215D882687F
:10246000B24201D1026972B1124AC26680F87C1090
:1024700001680A6842F480720A600068816841F06D
:10248000805181600FE00C4AEFE78268B24201D1CF
:10249000026952B1094AC26680F87C10006801687E
:1024A00041F490710160002070BD054AF3E70220FD
:1024B00070BD0000B5390008B5380008553900086E
:1024C0005538000802490122A1F18C00FFF77CBFBA
:1024D000B00000207047FEE700B585B014216846C3
:1024E000FDF7E0FE4FF6FF70009000200321CDE9DC
:1024F0000201019069460248FEF7D0FD05B000BD1B
:102500000008004800B585B014216846FDF7CAFEF2
:102510004FF6FF70009001200190032003900020EF
:10252000029069460248FEF7B9FD05B000BD000003
:102530000008004870B5002406462146204600F0F9
:10254000D3F900F011FA4FF49635304600F0E0F977
:10255000641CAC42F9D370BD30B587B01421684615
:10256000FDF7A0FE1E48C16C41F00401C164C16CBE
:1025700001F004010591C16C41F00101C164C16C1D
:1025800001F001010591C16C41F00201C164C06C10
:10259000012500F0020005904FF44870CDE90005D8
:1025A00000240394694602940E48FEF777FD280242
:1025B00003940090CDE901544FF0904469462046C1
:1025C000FEF76CFDFFF79EFFA06940F48070A061EC
:1025D00004481830016841F40871016007B030BD4B
:1025E00000100240000400482DE9F043002689B0A5
:1025F0008146002A01DA524201260A24581E40B2BE
:102600006D46A44611E000BFB2FBF4F7B4FBFCF842
:1026100004FB1727B7FBF8F730372F54A24206D335
:1026200004EB84046400401E40B20028ECDA1EB1C2
:102630002D22401E40B22A542022041EA0F1010087
:1026400040B201DD2A54F8E70020E8542A46484603
:1026500000F0A4F809B0BDE8F08300002DE9F041D6
:1026600016462DED028B8CB00F468046B0EE408AA8
:1026700018223F4905A8FDF7FCFDB5EEC08A0025EC
:10268000F7EE000AF1EE10FA6C4605D22D20B1EEFD
:10269000488A8DF80000641C052E00D9052605A87F
:1026A00000EB8600F2EE048A90ED000A30EE088A14
:1026B00004E000BF60EEA80A6D1CEDB2B4EEE08A43
:1026C000F1EE10FAF6DA55BB302004F8010B29E0E0
:1026D00010EE900AFDF7A5FF9FED261B53EC112B82
:1026E000FDF704FF9FED251B53EC112BFDF7E5FDD6
:1026F000FDF778FF00EE100AF8EEC00A88EE200A17
:10270000BCEEC00A10EE100AC0B200EE100A00F1D2
:10271000300104F8011BB8EE400A00EEC08A6D1EBD
:10272000EDB2D5D20021BEB12E2004F8010B10E08D
:1027300068EE280ABCEEE00A10EE100AC0B200EE05
:10274000100A00F1300204F8012BB8EE400A30EE16
:10275000C08A761EF6B2EBD221706A4639464046F0
:1027600000F01CF80CB0BDEC028BBDE8F08100005D
:102770001459000800000000000024400000000080
:102780000000E03F203AD2B2034B02EB420203EBDF
:10279000021200F019B80000444700082DE9F0418A
:1027A00015460E460746002407E031463846FFF737
:1027B000E9FF103E641CB6B26D1C2A78002A01D0D5
:1027C000142CF2D3BDE8F0812DE9F04791468A46FA
:1027D0000026044600F088F8DFF84480012700BF97
:1027E00000F0C2F85FF0000539F8160007FA05F1AD
:1027F0000842404601D1408800E0008800F088F897
:102800006D1C102DF0D3641CE4B25146204600F03C
:102810006BF8761C182EE3D3BDE8F04700F016B92C
:102820000000002010B5FFF797FE002000F014F81C
:10283000084CA080A088A0F50241303906D000F0F5
:10284000BFFB002000F008F8A08010BD00F02FFBB7
:10285000F7E700000000002070B51D490A6842F447
:1028600000720A600A6842F480720A60184C103CD8
:10287000226842F020022260164A1060086840F088
:102880002000086000BF00BF00BF206840F02000AB
:102890002060206840F480702060FFF71DFE4FF03C
:1028A0009041886A40F48070886200BF00BF00BF1A
:1028B0000848001F006885B2886940F4807088610C
:1028C000FFF720FE206840F400702060284670BDAD
:1028D000280400481408004801B5BDF8000001496B
:1028E000488008BD0000002010B50C46014620209D
:1028F00000F068F82146BDE81040212000F062B8E1
:1029000001B5BDF800000149088008BD00000020A5
:10291000134A116841F400711160114910390B68B4
:1029200043F480730B600B6843F020030B600D4B86
:102930001860106840F02000106000BF00BF00BFAA
:10294000086840F020000860086840F48070086063
:1029500000BF00BF00BF086840F400700860704707
:1029600028040048140800481449086840F400701E
:102970000860086840F480700860104810380268E9
:1029800042F0200202600E4B22221A600A6842F0D6
:1029900020020A6000BF00BF00BF016841F02001B3
:1029A0000160016841F48071016000BF00BF00BF99
:1029B000016841F40071016070470000280400487C
:1029C00014080048184B10B51A6842F400721A60D7
:1029D0001A6842F480721A60134A103A146844F07C
:1029E00020041460114C2060186840F0200018602A
:1029F00000BF00BF00BF106840F0200010601068EA
:102A000040F4807010602160186840F02000186069
:102A100000BF00BF00BF106840F0200010601068C9
:102A200040F48070106010BD28040048140800486D
:102A30000548007818B1012804D101F0C9BC012073
:102A400001F0E6BC704700000800002010B501222C
:102A50004FF6FF710748FEF70AFC074C01220421DC
:102A60002046FEF704FC20460022BDE81040042169
:102A7000FEF7FDBB00080048000C0048F0B587B029
:102A800014216846FDF70EFC1E48C16C41F004019C
:102A9000C164C16C01F004010591C16C41F02001D9
:102AA000C164C16C01F020010591C16C41F00801C5
:102AB000C164C06C144E00F008004FF47F440590D0
:102AC000002221463046FEF7D2FB104F002204219F
:102AD0003846FEF7CCFB0125CDE9004500240294E1
:102AE000694630460394FEF7D9FA04200090CDE9F8
:102AF0000154694638460394FEF7D0FAFFF7A6FF63
:102B000007B0F0BD0010024000080048000C00486B
:102B100000EB8100006E00F0F84070478068C0F361
:102B2000C00070478068C0F380007047042303EA48
:102B3000D15310B518444369C1F3045107248C40A4
:102B4000A3438A401343436110BD00EB8100016E33
:102B500021F00041114301667047000030B59FB07D
:102B6000202111A8FDF79EFB44216846FDF79AFB42
:102B7000142119A8FDF796FB4FF400400090800344
:102B80000F906846FEF7B6FC1E48C16C41F4005138
:102B9000C164C06C4FF0A04100F400501E901A4870
:102BA00000240425C0E900148460C4600461C0E905
:102BB0000545047744770121016280F82440C4620E
:102BC000046380F83840C46380F84040FEF7A0F802
:102BD0000E48119006201290072013907F20CDE917
:102BE000140511A916940848FDF77EFEA802199055
:102BF0000320CDE91A0419A905481C94FEF74EFAE2
:102C00001FB030BD001002401C0200200008302E12
:102C10000004004870B5A0B0202111A8FDF742FBC8
:102C200044216846FDF73EFB142119A8FDF73AFB45
:102C30004FF40045A80300950F906846FEF75AFC34
:102C40001D48C16C41F40051C164C06C1B4900F4C3
:102C500000501E901A4800240426C0E90014846025
:102C6000C4600461C0E9054604774477012101622C
:102C700080F82440C462046380F83840C46380F85C
:102C80004040FEF745F80F481190062012900720AB
:102C900013907F20CDE9140611A916940848FDF77A
:102CA00023FE0320CDE91A04199519A906481C949E
:102CB000FEF7F4F920B070BD001002400001005092
:102CC000880200200080F03E000400482DE9F04F0B
:102CD00087B014216846FDF7E5FA3C48016E41F4DF
:102CE00080210166016E01F480210591016E41F49D
:102CF00000310166016E01F400310591C16C41F0B3
:102D00000101C164C06C324900F0010005903148F6
:102D10004FF0500B0024C0E9001B41F28831C0E99C
:102D2000024180250461C0E90545FFF78BF802AA3E
:102D300003274FF0010882E890010226CDE90056F2
:102D400069464FF09040FEF7A9F922484FF060091C
:102D500098304FF0640A8460C4600461C0E9009A4E
:102D6000014600229838FFF79FF800211948FFF725
:102D70002BF9184818494C30C0E9001B42F2107179
:102D8000C0E902410461C0E90545FFF75BF8402056
:102D9000CDE9000602AA694682E890014FF0904012
:102DA000FEF77CF90B480022B43001468460C46011
:102DB0000461C0E9009A6838FFF776F805480021F9
:102DC0004C30FFF701F907B0BDE8F08F001002406A
:102DD000004801404C0100200044014010B598B06B
:102DE000142111A8FDF75EFA44216846FDF75AFA4E
:102DF00001200024CDE900046846FEF77BFB27484C
:102E0000016E41F480410166016E01F4804116912A
:102E1000C16C41F00101C164C06C214900F00100A6
:102E200016902048002201604FF41651C0E90114A9
:102E30000C21C460C0E904418461C461046244623D
:102E400011468462FEF774FA00211648FFF7C2F9B2
:102E500000211448FFF798F91248FFF775F94FF46D
:102E6000C06011901220CDE912040720CDE9144072
:102E700011A94FF09040FEF711F9002211462520CC
:102E8000FEF7A8FA2520FEF798FA064901228C31B0
:102E90000448FFF799FA18B010BD00000010024076
:102EA0000038014024000020FEE77047704730B52D
:102EB00001210020FFF786FD4FF47A70FDF705FD34
:102EC00000210120FFF77EFD41F290711020FFF7F5
:102ED00079FD4FF41C516020FFF774FD0121612042
:102EE000FFF770FD02214620FFF76CFD48F210014C
:102EF0001320FFF767FD48F2FE011220FFF762FD85
:102F00004FF4A0610220FFF75DFD41F23001032084
:102F1000FFF758FD40F2033421463020FFF752FD01
:102F200021463120FFF74EFD21463220FFF74AFDB2
:102F3000E51E29463320FFF745FD03213420FFF726
:102F400041FD21463520FFF73DFD14213620FFF7D6
:102F500039FD21463720FFF735FD21463820FFF7A0
:102F600031FD21463920FFF72DFD29463A20FFF794
:102F700029FD03213B20FFF725FD21463C20FFF7DB
:102F800021FD4FF4A0513D20FFF71CFD4FF40071CF
:102F90009220FFF717FD21469320FFF713FD40F61F
:102FA0000D019020FFF70EFD41F218010320FFF7FD
:102FB00009FDBDE8304040F273110720FFF702BD64
:102FC00010B543F20801E320FFF7FCFC1221E720D3
:102FD000FFF7F8FC41F23121EF20FFF7F3FC00216D
:102FE0000120FFF7EFFC4FF4E0610220FFF7EAFC5D
:102FF00041F230010320FFF7E5FC00210420FFF738
:10300000E1FC40F207210820FFF7DCFC0021092049
:10301000FFF7D8FC00210A20FFF7D4FC00210C2088
:10302000FFF7D0FC00210D20FFF7CCFC00210F2082
:10303000FFF7C8FC00211020FFF7C4FC0721112076
:10304000FFF7C0FC00211220FFF7BCFC0021132079
:10305000FFF7B8FCC820FEF70FF841F2906110208E
:10306000FFF7B0FC40F227211120FFF7ABFC322024
:10307000FEF702F81D211220FFF7A4FC3220FDF715
:10308000FBFF4FF400611320FFF79CFC1421292063
:10309000FFF798FC0B212B20FFF794FC3220FDF763
:1030A000EBFF00212020FFF78DFC00212120FFF7FE
:1030B00089FC07213020FFF785FC40F207713120A1
:1030C000FFF780FC06213220FFF77CFC40F2047100
:1030D0003520FFF777FC41F604713620FFF772FCCC
:1030E00004213720FFF76EFC00213820FFF76AFC2F
:1030F00040F206713920FFF765FC40F201713C2077
:10310000FFF760FC0F213D20FFF75CFC0021502001
:10311000FFF758FCEF215120FFF754FC002152200B
:10312000FFF750FC40F23F115320FFF74BFC4FF4E8
:103130001C516020FFF746FC01216120FFF742FC93
:1031400000216A20FFF73EFC00218020FFF73AFCB7
:1031500000218120FFF736FC00218220FFF732FC9E
:1031600000218320FFF72EFC00218420FFF72AFC9A
:1031700000218520FFF726FC10219020FFF722FC7C
:1031800000219220FFF71EFC03219320FFF71AFC79
:103190004FF488719520FFF715FC00219720FFF769
:1031A00011FC00219820FFF70DFC41F218010320CB
:1031B000FFF708FCBDE8104040F273110720FFF74D
:1031C00001BC704710B5044600210848FEF766FFB1
:1031D000064800226830014644606838FEF764FE05
:1031E000BDE8104000210148FEF7EEBE9801002026
:1031F00010B5044600210848FEF750FF064800229B
:103200009830014644609838FEF74EFEBDE8104005
:1032100000210148FEF7D8BE4C010020FEF732B86D
:1032200000B593B038216846FDF73CF814210EA88C
:10323000FDF738F84FF40070FEF7FEF80220C101E8
:103240000391402104910090079008901421CDE94A
:1032500009010B900C900D906846FEF7D9FB0F20EA
:103260000E9003200F9000201090119012900321D7
:103270000EA8FEF783FA13B000BD000005480168F0
:1032800041F47001016003494FF00060803908602B
:103290007047000088ED00E02DE9F0430268234B01
:1032A000234D244E244C4FF08049984207D0484586
:1032B00005D0A84203D0B04201D0A04203D122F0F1
:1032C00070074A683A431D4FDFF874C0DFF8748016
:1032D00098420DD048450BD0A84209D0B04207D043
:1032E000A04205D0B84203D0604501D0404503D18B
:1032F00022F44075CA682A434D6922F080022A43AD
:1033000002608A68C2620A688262984207D0A0425C
:1033100005D0B84203D0604501D0404501D10969CC
:10332000016301214161BDE8F0830000002C0140F0
:10333000000400400008004000340140004001400B
:10334000004401400048014010B501F01F03012175
:10335000046A99408C430462016A9A4011430162F5
:1033600010BD00002DE9F043026A22F00102026262
:10337000056A436882691C4C25F0020522400C68EE
:1033800022F0030214438A68194E2A43174D194F3D
:10339000DFF864C0DFF86490A84207D0B04205D0DF
:1033A000B84203D0604501D0484506D122F0080854
:1033B000CA6842EA080222F00402A84207D0B042DA
:1033C00005D0B84203D0604501D0484505D14D69CC
:1033D00023F440731D438B692B4343608461496828
:1033E00041630262BDE8F0838FFFFEFF002C0140C5
:1033F00000340140004001400044014000480140C9
:10340000F0B5026A22F010020262056A426883691E
:10341000194C1B4E23400C6823F4407343EA0424E8
:1034200025F020038D6843EA0513144DA84201D00E
:10343000B04206D1CF6823F0800343EA071323F09C
:103440004003A8420AD0B04208D00E4DA84205D091
:103450000D4DA84202D00D4DA84207D14D6922F46E
:10346000406242EA85028D6942EA850242608461D7
:10347000496881630362F0BDFF8FFFFE002C0140AD
:103480000034014000400140004401400048014038
:10349000F0B5026A22F480720262056A4368C2696A
:1034A000194C1B4E22400C6822F00302144325F4F1
:1034B00000728D6842EA0522144DA84201D0B04244
:1034C00006D1CF6822F4006242EA072222F4806229
:1034D000A8420AD0B04208D00E4DA84205D00E4DE9
:1034E000A84202D00D4DA84207D14D6923F44053A4
:1034F00043EA05138D6943EA05134360C4614968D3
:10350000C1630262F0BD00008FFFFEFF002C01408E
:1035100000340140004001400044014000480140A7
:10352000F0B5026A22F480520262056A4268C369F9
:10353000194C1B4E23400C6823F4407343EA0424C7
:1035400025F400538D6843EA0533144DA84201D099
:10355000B04206D1CF6823F4004343EA073323F493
:103560008043A8420AD0B04208D00E4DA84205D0F0
:103570000D4DA84202D00D4DA84207D14D6922F44D
:10358000404242EA85128D6942EA85124260C46176
:10359000496801640362F0BDFF8FFFFE002C01400B
:1035A0000034014000400140004401400048014017
:1035B00030B5026A22F480320262046A4268036D06
:1035C000114D2B400D681D4324F400330C8943EA50
:1035D00004430E4CA0420BD00D4CA04208D00D4C21
:1035E000A04205D00C4CA04202D00C4CA04204D109
:1035F0004C6922F4803242EA04224260056549683F
:103600008164036230BD00008FFFFEFF002C01408B
:1036100000340140004001400044014000480140A6
:1036200030B5026A22F480120262046A4268036DB5
:10363000114D24F400142B400D6843EA05230D8935
:1036400044EA05540D4DA8420BD00D4DA84208D0B8
:103650000C4DA84205D00C4DA84202D00B4DA842FB
:1036600004D14D6922F4802242EA8522426003653A
:103670004968C164046230BDFF8FFFFE002C014029
:103680000034014000400140004401400048014036
:103690003FB514A1D1E90021CDE9002113A2D2E95F
:1036A0000012CDE90212416EB9B1026891689268C8
:1036B000C1F34261520F1DF80240E50002ACA25C6A
:1036C000B5FBF2F2A0F86A201DF80120615CD2007F
:1036D000B2FBF1F1A0F868103FBD0121A0F86A101B
:1036E000F8E70000010101030701000008040204DB
:1036F0000801010190F82810C90706D001684A683E
:10370000C36A22F400321A434A6090F828108907ED
:1037100006D501684A68036B22F480321A434A6076
:1037200090F82810490706D501684A68436B22F4CF
:1037300080221A434A6090F82810090706D50168CC
:103740004A68836B22F400421A434A6090F82810BA
:10375000C90606D501688A68C36B22F480521A43F1
:103760008A6090F82810890606D501688A68036C7B
:1037700022F400521A438A6090F82810490611D5A5
:1037800001684A68436C22F480121A434A60416C13
:10379000B1F5801F06D101684A68836C22F4C0022B
:1037A0001A434A6090F82810090606D501684A684D
:1037B000C06C22F4002202434A607047F8B500262C
:1037C0000446C0F88860FDF757FD0546206800688C
:1037D0006FF07E47000708D52B4600224FF40011FA
:1037E0002046009700F009FD60B920680068400796
:1037F0000AD52B4600224FF480012046009700F0A6
:10380000FCFC08B10320F8BD2020C4F88000C4F8F7
:10381000840084F87C600020F8BD10B5806A002127
:10382000A0F85E10A0F85610FEF7FCFC10BD0000DA
:1038300001680A6822F490720A6001688A68044B81
:103840001A408A602021C0F884100021C1667047A8
:10385000FEFFFFEF10B5B0F86020D0F884300168AB
:10386000222B04D0886940F00800886110BD496AA5
:10387000836D11401980816D891C8165B0F85E10DF
:10388000491EA0F85E10B0F85E100029EED1016864
:103890000A6822F490720A6001688A6822F00102C4
:1038A0008A602021C0F884100021C166FEF70AFE5C
:1038B00010BD000070B50446B0F86060D0F8840018
:1038C000222805D02068816941F00801816170BD1E
:1038D000B4F8685023E02068406AA16D3040088049
:1038E000A06D801CA065B4F85E00401EA4F85E00C8
:1038F000B4F85E0088B92068016821F48071016025
:1039000020688168114A114081602020C4F8840039
:103910000020E0662046FEF7D5FD6D1EADB2002DFD
:10392000D9D1B4F85E000028D1D0B4F86810814233
:10393000CDD92068816821F0805181600448E0661B
:103940002068016841F02001016070BDFEFFFFEFBB
:103950005538000810B5B0F86020D0F88430016800
:10396000222B04D0886940F00800886110BD496AA4
:103970001140826D1170816D491C8165B0F85E1037
:10398000491EA0F85E10B0F85E100029EED1016863
:103990000A6822F490720A6001688A6822F00102C3
:1039A0008A602021C0F884100021C166FEF78AFDDC
:1039B00010BD000070B50446B0F86060D0F8840017
:1039C000222805D02068816941F00801816170BD1D
:1039D000B4F8685023E02068406AA16D3040087058
:1039E000A06D401CA065B4F85E00401EA4F85E0007
:1039F000B4F85E0088B92068016821F48071016024
:103A000020688168114A114081602020C4F8840038
:103A10000020E0662046FEF755FD6D1EADB2002D7C
:103A2000D9D1B4F85E000028D1D0B4F86810814232
:103A3000CDD92068816821F0805181600448E0661A
:103A40002068016841F02001016070BDFEFFFFEFBA
:103A5000553900082DE9F05F044601688068236944
:103A6000E5691843636900272B431843636EFA4ADC
:103A700003430868F94D28401843086020684168EE
:103A8000E36821F44051194341602168A0699142E3
:103A900001D0236A18438B68F14D2B4003438B60A0
:103AA0002068C16A636A21F00F011943C162ED4BBE
:103AB0002068ED4998420DD1D1F8881011F003012A
:103AC00006D001295AD0022956D003293FD157E008
:103AD00001253DE0E54B98420BD1D1F8881011F05B
:103AE0000C0147D0042949D0082945D00C292ED1F2
:103AF00046E0DF4B98420BD1D1F8881011F030012D
:103B000038D010293AD0202936D030291FD137E0BB
:103B1000D84B98420BD1D1F8881011F0C00129D0B0
:103B200040292BD0802927D0C02910D128E09042ED
:103B30000DD1D1F8881011F440611BD0B1F5806F20
:103B40001CD0B1F5006F17D0B1F5406F18D010251B
:103B5000DFF824A34FF480764FF000094FF4004BB8
:103B600090426ED175B1022D29D0042D59D0082D67
:103B700068D176E00025EBE70225E9E70425E7E7D1
:103B80000825E5E7FDF7E8FE4DE0012851D00228C1
:103B900051D0032851D0042851D0052853D00628ED
:103BA00053D0072853D0082853D0092853D00A28C7
:103BB00053D00B2853D03AE0B1FBF0F06CE0606AD0
:103BC000A8B1012817D0022817D0032817D004283D
:103BD00017D0052817D0062817D0072817D008288F
:103BE00017D0092817D00A2817D00B2817D0012082
:103BF000BAFBF0F050E00220FAE70420F8E70620D4
:103C0000F6E70820F4E70A20F2E70C20F0E710209E
:103C1000EEE72020ECE74020EAE78020E8E73046A6
:103C2000E6E7FDF7BDFE0146606A0028ADD1012040
:103C3000C2E70220C0E70420BEE70620BCE7082058
:103C4000BAE761E14AE00A20B6E70C20B4E71020A9
:103C5000B2E72020B0E74020AEE78020ACE7304656
:103C6000AAE7606AA8B1012822D0022822D003283E
:103C700022D0042822D0052822D0062822D00728C6
:103C800022D0082822D0092822D00A2822D00B28A6
:103C900022D00120BBFBF0F0002820D061688846CC
:103CA00001EB4101814219D8B0EB083F16D817E06B
:103CB0000220EFE70420EDE70620EBE70820E9E724
:103CC0000A20E7E70C20E5E71020E3E72020E1E702
:103CD0004020DFE78020DDE73046DBE7012739E2DF
:103CE0007DB3022D61D0042D7DD0082DF6D1606A00
:103CF000A8B1012878D0022877D0032876D00428EC
:103D000075D0052874D0062873D0072872D00828EB
:103D100071D0092870D00A286FD00B2800D0012656
:103D200032464D46002358460021FCF771FA09023D
:103D300041EA106102024FEA5800101869414246F8
:103D400070E0FFE7FDF708FE0146606AA8B10128B0
:103D500017D0022817D0032817D0042817D0052819
:103D600017D0062817D0072817D0082817D00928F9
:103D700017D00A2817D00B2800D0012632464D460E
:103D80008CE00226FAE70426F8E70626F6E708267E
:103D9000F4E70A26F2E70C26F0E71026EEE72026E5
:103DA000ECE74026EAE78026E8E7606AA8B1012848
:103DB00024D0022824D0032824D0042824D0052885
:103DC00024D0062824D0072824D0082824D0092865
:103DD00024D00A2824D00B2800D0012632464D4694
:103DE00000235046A0E726E07AE07BE07CE07DE01F
:103DF0007EE07FE080E081E082E083E00226EDE784
:103E00000426EBE70626E9E70826E7E70A26E5E7C2
:103E10000C26E3E71026E1E72026DFE74026DDE772
:103E20008026DBE70023FCF7F3F9144AA0F5407184
:103E3000914271D952E7FDF7B3FD0146606A50B374
:103E4000012839D0022839D0032839D0042839D0A4
:103E5000052839D0062813E000800040F369FFCF21
:103E6000FFF4FF1100380140001002400044004000
:103E700000480040004C00400024F400FFFC0F000C
:103E800024D0072824D0082824D0092824D00A28A0
:103E900024D00B2800D001264D4632460023084688
:103EA0001946FCF7B5F90902626841EA106103029C
:103EB000500818186941B5E70226EDE70426EBE73C
:103EC0000626E9E70826E7E70A26E5E70C26E3E702
:103ED0001026E1E72026DFE74026DDE78026DBE746
:103EE00002261DE704261BE7062619E7082617E722
:103EF0000A2615E70C2613E7102611E720260FE700
:103F000040260DE780260BE7E0694FF6EF7858452D
:103F100070D1092D8ED200E01AE1DFE805F0060924
:103F20003C05800505058300D8E6FDF715FD01E099
:103F3000FDF724FD0146606AA8B1012815D00228CA
:103F400015D0032815D0042815D0052815D006282B
:103F500015D0072815D0082815D0092815D00A280B
:103F600015D00B2814D0012612E0022610E00426FA
:103F70000EE006260CE008260AE00A2608E00C26D9
:103F800006E0102604E0202602E0402600E080261D
:103F9000B1FBF6F01AE0606AA8B101282BD0022824
:103FA0002BD003282BD004282BD005282BD0062873
:103FB0002BD007282BD008282BD009282BD00A2853
:103FC0002BD00B2800D00126BAFBF6F04100606828
:103FD00001EB5001B1FBF0F080B2A0F110014145BE
:103FE000A2D84FF6F0710140C0F3420001432068AF
:103FF000C160AFE046E00226E6E70426E4E70626D5
:10400000E2E70826E0E70A26DEE70C26DCE71026D2
:10401000DAE72026D8E74026D6E78026D4E7FDF762
:10402000BFFC87E7606AA8B1012817D0022817D023
:10403000032817D0042817D0052817D0062817D032
:10404000072817D0082817D0092817D00A2817D012
:104050000B2800D00126BBFBF6F0B7E70226FAE7F3
:104060000426F8E70626F6E70826F4E70A26F2E72C
:104070000C26F0E71026EEE72026ECE74026EAE7DC
:104080008026E8E7092DBFF4D5AEDFE805F0060984
:104090003C0583050505860020E6FDF75DFC01E093
:1040A000FDF76CFC0146606AA8B1012815D0022812
:1040B00015D0032815D0042815D0052815D00628BA
:1040C00015D0072815D0082815D0092815D00A289A
:1040D00015D00B2814D0012612E0022610E0042689
:1040E0000EE006260CE008260AE00A2608E00C2668
:1040F00006E0102604E0202602E0402600E08026AC
:10410000B1FBF6F11AE0606AA8B101282ED00228AE
:104110002ED003282ED004282ED005282ED00628F5
:104120002ED007282ED008282ED009282ED00A28D5
:104130002ED00B2800D00126BAFBF6F1606801EB07
:104140005001B1FBF0F080B2A0F110014145A3D8BD
:104150002168C8600120A4F86A0024F8680F384676
:10416000C4F80490C4F80890BDE8F09F0226E3E785
:104170000426E1E70626DFE70826DDE70A26DBE777
:104180000C26D9E71026D7E72026D5E74026D3E727
:104190008026D1E7FDF704FC84E7606AA8B1012816
:1041A00017D0022817D0032817D0042817D00528C5
:1041B00017D0062817D0072817D0082817D00928A5
:1041C00017D00A2817D00B2800D00126BBFBF6F128
:1041D000B4E70226FAE70426F8E70626F6E70826FB
:1041E000F4E70A26F2E70C26F0E71026EEE7202691
:1041F000ECE74026EAE78026E8E72DE9F04198461B
:1042000017460E460446069D08E0681C06D0FDF7DA
:1042100033F8A0EB0800A8420BD855B12068C0695C
:1042200036EA000019D00020B842EED00020BDE8E8
:10423000F0812068016821F4D071016020688168F4
:1042400021F0010181602020C4F88000C4F88400BE
:10425000002084F87C000320E9E70120E4E7000067
:104260000148FDF7E1BF000024000020FEE7090738
:10427000090E002804DB00F1E02080F800147047EC
:1042800000F00F0000F1E02080F8141D704702E0FC
:1042900008C8121F08C1002AFAD1704770470020D1
:1042A00001E001C1121F002AFBD1704710B504487C
:1042B000FCF72CFE0248FCF727FD80B210BD000081
:1042C0008802002010B586B014216846FBF7EAFF8B
:1042D0001248C16C41F00101C164C16C01F00101DF
:1042E0000591C16C41F00201C164C06C002400F072
:1042F000020005900120CDE9000469464FF090408E
:104300000294FCF7CBFE0720CDE90004694604487F
:104310000294FCF7C3FE06B010BD0000001002407E
:104320000004004870B54FF0904501212846FCF785
:1043300099FF264C70B101212046FCF793FF48B14C
:1043400002212046FCF78EFF20B104212046FCF715
:1043500089FFB0B91420FCF78FFE01212046FCF73D
:1043600081FF80B102212046FCF77CFF98B1042137
:104370002046FCF777FFB0B101212846FCF772FF19
:10438000D0B1002070BD012501212046FCF76AFF55
:104390000028F9D00EE0022502212046FCF762FF3A
:1043A0000028F9D006E0032504212046FCF75AFF37
:1043B0000028F9D0284670BD042401212846FCF7C6
:1043C00051FF0028F9D0204670BD000000040048CD
:1043D0000C4910B5802282400888024390B20880C0
:1043E00009490A68D2B202430A60084C012204213A
:1043F0002046FCF73CFF20460022BDE81040042187
:10440000FCF735BF1000002014080048000C0048DD
:104410000C4910B5802282400888904308800A49E0
:104420000A68D2B202430A60084C012204212046E5
:10443000FCF71DFF20460022BDE810400421FCF7D8
:1044400016BF00001000002014080048000C0048AF
:10445000FCF722FAFEE700002DED048B00F0AAF82D
:1044600000F0D6F80A26344C01274FF0000800BFB0
:10447000FEF7DEFA00F074F8FFF754FF012806D0CB
:104480000428F5D1207890B3012850D051E000F0F5
:10449000D7F800F009F99FED298B9FED2A9B00BF0B
:1044A000FEF7C6FAFFF702FFFCF78FF853EC182B64
:1044B000FBF7AAFF53EC192BFBF7A6FFFCF7C4F898
:1044C0006060FFF72FFF0546207808B900F0ECF890
:1044D000012D0DD0022D0ED0032D17D0042DDFD1CC
:1044E000207800B30128DBD184F80080D8E71CE0F5
:1044F00000F060F81DE020780128D1D160780A3002
:10450000C0B260705A280BD9667009E02078012883
:10451000C6D1A0780A30C0B2A0705A2800D9A670BF
:1045200000F0C2F8BCE72770BAE7277001E084F812
:10453000008000F06DF89BE7080000206666666664
:1045400066660A40000000000000303F10B5FFF72B
:10455000B9FE00F02FF8BDE8104000F059B8000097
:1045600010B5FFF7A3FEFCF730F89FED0D1B53ECE1
:10457000112BFBF749FF9FED0C1B53EC112BFBF7A5
:1045800043FFFCF761F800EE100A09480222DE2121
:1045900080ED010ABDE810403020FEF75FB8000052
:1045A0006666666666660A40000000000000303FEE
:1045B0000800002010B50020FDF7BCFF0020FEF72A
:1045C0008BF94FF6FF70FEF79BF90BA2DE2100205E
:1045D000FEF7E4F80AA2FE213020FEF7DFF809A278
:1045E0009E213020FEF7DAF8FE21BDE8104006A239
:1045F0006020FEF7D3B80000446174610000000041
:10460000563A0000560000004D6F64653A00000005
:104610000648007830B1012806D105A2AE216020FD
:10462000FEF7BCB804A2F9E77047000008000020BC
:104630004D414E55000000004155544F0000000010
:1046400010B50020FDF776FF0020FEF745F94FF684
:10465000FF70FEF755F90DA2DE210020FEF79EF84F
:104660000CA2FE213020FEF799F80CA29E213020EA
:10467000FEF794F80AA2FE216020FEF78FF89E2133
:10468000BDE8104005A26020FEF788B85061726155
:10469000000000005041363A0000000025000000F4
:1046A0005041373A0000000070B51F48204CC168E7
:1046B0006420B1FBF0F61D49C968B1FBF0F5207824
:1046C00001282BD000282DD16068FBF7AAFF9FEDB1
:1046D000191B53EC112BFBF709FF9FED181B53EC33
:1046E000112BFBF791FEFBF77DFFA11C0860C0B208
:1046F00060707043FEF766FDA0786843FEF778FDB2
:1047000002236278BE213020FDF76EFFA278BDE85B
:1047100070400223BE216020FDF766BF617806FB72
:1047200001F0E7E770BD0000980100204C01002077
:10473000080000206666666666660A4000000000A3
:1047400000005940000000000000000000000000D0
:104750000000000000000000000000000000000059
:104760000000000000000000000000000000000049
:1047700000000000000080018001800180018001B4
:104780008001800180018001800180018001800121
:104790000000000080018001000000000000000017
:1047A0000000000000000000CC00CC00CC00CC00D9
:1047B000CC00CC0000000000000000000000000061
:1047C00000000000000000000000000000000000E9
:1047D00000000000000000000000000000000000D9
:1047E000600C600C600C30063006FE1FFE1F3006A9
:1047F00038071803FE1FFE1F180318038C018C01D5
:104800008C01000000008000E003F80F9C0E8C1C5F
:104810008C188C009800F801E007800E801C8C1822
:104820008C189C18B80CF00FE0038000800000008A
:10483000000000000000000000000E181B0C110C0E
:1048400011061106110311039B018E01C038C06CC3
:1048500060446044304430441844186C0C38000004
:10486000000000000000E001F003380718061806F9
:104870003003F001F000F8009C310E33061E061CD8
:10488000061C063FFC73F021000000000000000041
:1048900000000000000000000C000C000C000C00E8
:1048A0000C000C00000000000000000000000000F0
:1048B00000000000000000000000000000000000F8
:1048C000000000000000000200038001C000C000E2
:1048D00060006000300030003000300030003000F8
:1048E0003000300060006000C000C00080010003A4
:1048F00000020000000020006000C0008001800174
:10490000000300030006000600060006000600067D
:10491000000600060003000380018001C000600063
:104920002000000000000000000000000000000067
:10493000C000C000D806F807E001300338070000C7
:104940000000000000000000000000000000000067
:104950000000000000000000000000000000000057
:1049600080018001800180018001FC3FFC3F8001CB
:104970008001800180018001000000000000000033
:104980000000000000000000000000000000000027
:104990000000000000000000000000000000000017
:1049A0000000000000008001800100010001800083
:1049B00000000000000000000000000000000000F7
:1049C000000000000000000000000000E007E00719
:1049D00000000000000000000000000000000000D7
:1049E00000000000000000000000000000000000C7
:1049F00000000000000000000000000000000000B7
:104A0000000000000000C000C00000000000000026
:104A1000000000000000000C000C0006000600066C
:104A20000003000300038003800180018001C000B7
:104A3000C000C00060006000000000000000000036
:104A4000000000000000E003F007380E180C0C18FE
:104A50000C180C180C180C180C180C180C180C1836
:104A6000180C380EF007E003000000000000000002
:104A700000000000000000018001C001F001980169
:104A80008801800180018001800180018001800116
:104A90008001800180018001000000000000000012
:104AA000000000000000E003F80F180C0C180C18B0
:104AB00000180018000C000600038001C000600010
:104AC00030001800FC1FFC1F000000000000000068
:104AD000000000000000E001F807180E0C0C0C0CA0
:104AE000000C0006C003C007000C001800180C18CA
:104AF0000C18180CF807E00300000000000000008C
:104B0000000000000000000C000E000F000F800DE0
:104B1000C00C600C600C300C180C0C0CFC3FFC3F03
:104B2000000C000C000C000C000000000000000055
:104B3000000000000000F80FF80F180018000C002B
:104B4000EC03FC071C0E001C0018001800180C18C1
:104B50001C0C180EF807E003000000000000000025
:104B6000000000000000C007F00F381C18181800E3
:104B70000C00CC03EC0F3C0E1C1C0C180C180C1871
:104B8000181C380EF007E0030000000000000000D1
:104B9000000000000000FC1FFC1F000C00060006C7
:104BA000000380038001C001C000E00060006000DD
:104BB00070003000300030000000000000000000F5
:104BC000000000000000E003F007380E180C180C7D
:104BD000180C3806F007F007180C0C180C180C18F5
:104BE0000C18380CF80FE003000000000000000073
:104BF000000000000000E003F007380E1C0C0C1849
:104C00000C180C181C1C381EF81BE0190018000C9E
:104C1000000C1C0EF807F00100000000000000006E
:104C20000000000000000000000000000000000084
:104C30008001800100000000000000000000000072
:104C40000000000080018001000000000000000062
:104C50000000000000000000000000000000000054
:104C60008001800100000000000000000000000042
:104C700000000000800180010001000180000000B0
:104C80000000000000000000000000000000000024
:104C9000000000000010001C800FE003F800180066
:104CA000F800E003800F001C00100000000000006E
:104CB00000000000000000000000000000000000F4
:104CC00000000000F81F000000000000F81F0000B6
:104CD00000000000000000000000000000000000D4
:104CE00000000000000000000000000000000000C4
:104CF0000000000008003800F001C007001F001885
:104D0000001FC007F001380008000000000000008C
:104D1000000000000000E003F80F180C0C180C183D
:104D20000018000C000600038001C000C000C00095
:104D300000000000C000C0000000000000000000F3
:104D40000000000000000000E00718180420C2293D
:104D5000224A114409440944094409221113E20C6E
:104D6000024004201818E0070000000000000000C6
:104D700000000000000080038003C006C006C006DB
:104D8000600C600C301830183018F83FF83F1C7079
:104D90000C600C6006C006C00000000000000000AF
:104DA000000000000000FC03FC0F0C0C0C180C1899
:104DB0000C180C0CFC07FC0F0C180C300C300C30D1
:104DC0000C300C18FC1FFC07000000000000000065
:104DD000000000000000C007F01F38381C300C70C5
:104DE00006600600060006000600060006000660D3
:104DF0000C701C30F01FE0070000000000000000F5
:104E0000000000000000FE03FE0F060E0618061844
:104E100006300630063006300630063006300618FA
:104E20000618060EFE0FFE03000000000000000042
:104E3000000000000000FC3FFC3F0C000C000C00D8
:104E40000C000C00FC1FFC1F0C000C000C000C00E4
:104E50000C000C00FC3FFC3F0000000000000000C4
:104E6000000000000000F83FF83F1800180018008C
:104E700018001800F81FF81F180018001800180074
:104E800018001800180018000000000000000000C2
:104E9000000000000000E00FF83F3C780E6006E0E4
:104EA00007C00300030003FE03FE03C007C006C0E3
:104EB0000EC03CF0F83FE00F0000000000000000D2
:104EC0000000000000000C300C300C300C300C30B6
:104ED0000C300C30FC3FFC3F0C300C300C300C30F4
:104EE0000C300C300C300C300000000000000000D2
:104EF000000000000000800180018001800180012D
:104F00008001800180018001800180018001800199
:104F1000800180018001800100000000000000008D
:104F20000000000000000006000600060006000663
:104F30000006000600060006000600060006180629
:104F400018063807F003E001000000000000000030
:104F500000000000000006300618060C06060603D6
:104F60008601C60066007600DE008E010603060696
:104F7000060C061806300660000000000000000065
:104F800000000000000018001800180018001800A9
:104F90001800180018001800180018001800180051
:104FA00018001800F81FF81F0000000000000000A3
:104FB0000000000000000EE01EF01EF01EF036D8CB
:104FC00036D836D836D866CC66CC66CCC6C6C6C609
:104FD000C6C6C6C686C386C3000000000000000027
:104FE0000000000000000C301C303C303C306C30C5
:104FF0006C30CC30CC308C310C330C330C360C365E
:105000000C3C0C3C0C380C30000000000000000090
:10501000000000000000E007F81F1C380E7006605A
:1050200003C003C003C003C003C003C003C00660C5
:105030000E701C38F81FE0070000000000000000A0
:10504000000000000000FC0FFC1F0C380C300C307E
:105050000C300C300C18FC1FFC070C000C000C0072
:105060000C000C000C000C00000000000000000010
:10507000000000000000E007F81F1C380E700660FA
:1050800003E003C003C003C003C003C007E006631E
:105090000E3F1C3CF83FE0F700C00000000000009D
:1050A000000000000000FE0FFE1F0638063006302C
:1050B00006300638FE1FFE0706030606060C061815
:1050C00006180630063006600000000000000000F0
:1050D000000000000000E003F80F1C0C0C180C1876
:1050E0000C001C00F803E00F001E003806300630EC
:1050F0000E301C1CF80FE00700000000000000004C
:10510000000000000000FE7FFE7F80018001800122
:105110008001800180018001800180018001800187
:10512000800180018001800100000000000000007B
:105130000000000000000C300C300C300C300C3043
:105140000C300C300C300C300C300C300C300C307F
:105150000C301818F81FE0070000000000000000E5
:1051600000000000000003600630063006300C1816
:105170000C180C18180C180C380E30063006700776
:1051800060036003C001C0010000000000000000D7
:105190000000000000000360C361C361C3616633A7
:1051A000663366336633663366336C1B6C1B6C1B6D
:1051B0002C1A3C1E380E380E0000000000000000C3
:1051C0000000000000000FE00C7018303018700C68
:1051D000600EC00780038003C003E006700C301C23
:1051E00018180C300E6007E00000000000000000FE
:1051F00000000000000003C006600C301C383818A6
:10520000300C6006E007C00380018001800180014E
:10521000800180018001800100000000000000008A
:10522000000000000000FC7FFC7F006000300018E0
:10523000000C000600038001C00060003000180070
:105240000C000600FE7FFE7F000000000000000052
:10525000000000000000E003E00360006000600068
:10526000600060006000600060006000600060003E
:105270006000600060006000600060006000E003AB
:10528000E0030000000030003000600060006000BB
:10529000C000C000C000C001800180018001000387
:1052A00000030003000600060000000000000000EC
:1052B000000000000000E003E0030003000300031F
:1052C00000030003000300030003000300030003C6
:1052D0000003000300030003000300030003E003D6
:1052E000E003000000000000C001C0016003600393
:1052F000600330063006180C180C00000000000097
:10530000000000000000000000000000000000009D
:10531000000000000000000000000000000000008D
:10532000000000000000000000000000000000007D
:10533000000000000000FFFFFFFF00000000000071
:105340000000000000000C000C000C000C000C0021
:105350000C00000000000000000000000000000041
:10536000000000000000000000000000000000003D
:10537000000000000000000000000000000000002D
:10538000F003F8071C0C0C0C000FF00FF80C0C0CC1
:105390000C0C1C0FF80FF0180000000000000000BB
:1053A0000000000000001800180018001800180085
:1053B000D803F80F380C18181818181818181818D7
:1053C0001818380CF80FD803000000000000000087
:1053D00000000000000000000000000000000000CD
:1053E000C003F007300E180C180018001800180041
:1053F000180C300EF007C003000000000000000091
:105400000000000000000018001800180018001824
:10541000C01BF01F301C1818181818181818181866
:105420001818301CF01FC01B000000000000000016
:10543000000000000000000000000000000000006C
:10544000C003F00F300C1818F81FF81F18001800D0
:105450003818301CF00FC0070000000000000000EA
:10546000000000000000800FC00FC000C000C0009E
:10547000F007F007C000C000C000C000C000C000BE
:10548000C000C000C000C00000000000000000001C
:10549000000000000000000000000000000000000C
:1054A000E00DF80F180E0C0C0C0C0C0C0C0C0C0C6A
:1054B0000C0C180EF80FE00D000C0C0C1C06F80775
:1054C000F001000000001800180018001800180073
:1054D000D807F80F381C18181818181818181818A2
:1054E00018181818181818180000000000000000FC
:1054F000000000000000C000C0000000000000002C
:10550000C000C000C000C000C000C000C000C0009B
:10551000C000C000C000C00000000000000000008B
:10552000000000000000C000C000000000000000FB
:10553000C000C000C000C000C000C000C000C0006B
:10554000C000C000C000C000C000C000C000F80023
:105550007800000000000C000C000C000C000C0097
:105560000C0C0C060C038C01CC006C00FC009C01A4
:105570008C030C030C060C0C000000000000000063
:10558000000000000000C000C000C000C000C0005B
:10559000C000C000C000C000C000C000C000C0000B
:1055A000C000C000C000C0000000000000000000FB
:1055B00000000000000000000000000000000000EB
:1055C0007C3CFF7EC7E383C183C183C183C183C1A8
:1055D00083C183C183C183C10000000000000000BB
:1055E00000000000000000000000000000000000BB
:1055F0009807F80F381C18181818181818181818C1
:1056000018181818181818180000000000000000DA
:10561000000000000000000000000000000000008A
:10562000C003F00F300C181818181818181818188C
:105630001818300CF00FC00300000000000000003C
:10564000000000000000000000000000000000005A
:10565000D803F80F380C1818181818181818181834
:105660001818380CF80FD803180018001800180084
:105670001800000000000000000000000000000012
:10568000C01BF01F301C18181818181818181818F4
:105690001818301CF01FC01B001800180018001844
:1056A00000180000000000000000000000000000E2
:1056B000B007F003700030003000300030003000E0
:1056C000300030003000300000000000000000001A
:1056D00000000000000000000000000000000000CA
:1056E000E003F003380E180C3800F003C007000C7C
:1056F000180C380EF007E003000000000000000066
:1057000000000000000000008000C000C000C000D9
:10571000F007F007C000C000C000C000C000C0001B
:10572000C000C000C00780070000000000000000AB
:105730000000000000000000000000000000000069
:1057400018181818181818181818181818181818D9
:105750001818381CF01FE0190000000000000000BD
:105760000000000000000000000000000000000039
:105770000C18180C180C180C300630063006600394
:1057800060036003C001C0010000000000000000D1
:105790000000000000000000000000000000000009
:1057A000C141C141C36163636363636336363636A7
:1057B00036361C1C1C1C1C1C0000000000000000D5
:1057C00000000000000000000000000000000000D9
:1057D0001C38381C300C60066003600360036003F3
:1057E0006006300C381C1C3800000000000000006F
:1057F00000000000000000000000000000000000A9
:105800001830301830187018600C600CE00CC006AE
:10581000C00680038003800380018001C001F00086
:105820007000000000000000000000000000000008
:10583000FC1FFC1F000C000600038001C00060007C
:1058400030001800FC1FFC1F0000000000000000DA
:1058500000000000000000038001C000C000C00084
:10586000C000C000C0006000600030006000400068
:10587000C000C000C000C000C000C0008001000324
:105880000000000000008001800180018001800193
:105890008001800180018001800180018001800100
:1058A00080018001800180018001800180018001F0
:1058B0008001000000006000C000C0018001800184
:1058C0008001800180010003000300060003000145
:1058D000800180018001800180018001C0006000A2
:1058E00000000000000000000000000000000000B8
:1058F00000000000F010F81F080F0000000000007A
:105900000000000000000000000000000000000097
:105910000000000048E1FA3ECDCC4C3D0AD7A33B45
:105920006F12033A17B75138ACC5A7360000000014
:10593000000000000102030406070809000000003F
:105940000102030464590008000000202400000044
:105950008E4200088859000824000020D406000068
:105960009E4200080000FFFF00000000000A0A003D
:105970000000000000FF0000100000000100000017
:08598000000000000024F40007
:04000005080001D915
:00000001FF
